{
    "contractName": "SoulDistributor",
    "abi": [
        {
            "anonymous": false,
            "inputs": [
                {
                    "indexed": false,
                    "internalType": "uint256",
                    "name": "index",
                    "type": "uint256"
                },
                {
                    "indexed": false,
                    "internalType": "address",
                    "name": "account",
                    "type": "address"
                },
                {
                    "indexed": false,
                    "internalType": "uint256",
                    "name": "amount",
                    "type": "uint256"
                }
            ],
            "name": "Claimed",
            "type": "event"
        },
        {
            "anonymous": false,
            "inputs": [
                {
                    "indexed": true,
                    "internalType": "address",
                    "name": "previousOwner",
                    "type": "address"
                },
                {
                    "indexed": true,
                    "internalType": "address",
                    "name": "newOwner",
                    "type": "address"
                }
            ],
            "name": "OwnershipTransferred",
            "type": "event"
        },
        {
            "inputs": [
                {
                    "internalType": "uint256",
                    "name": "index",
                    "type": "uint256"
                },
                {
                    "internalType": "address",
                    "name": "account",
                    "type": "address"
                },
                {
                    "internalType": "uint256",
                    "name": "amount",
                    "type": "uint256"
                },
                {
                    "internalType": "bytes32[]",
                    "name": "merkleProof",
                    "type": "bytes32[]"
                }
            ],
            "name": "claim",
            "outputs": [],
            "stateMutability": "nonpayable",
            "type": "function"
        },
        {
            "inputs": [
                {
                    "internalType": "uint256",
                    "name": "amount",
                    "type": "uint256"
                }
            ],
            "name": "collectUnclaimed",
            "outputs": [],
            "stateMutability": "nonpayable",
            "type": "function"
        },
        {
            "inputs": [],
            "name": "endTime",
            "outputs": [
                {
                    "internalType": "uint256",
                    "name": "",
                    "type": "uint256"
                }
            ],
            "stateMutability": "view",
            "type": "function"
        },
        {
            "inputs": [
                {
                    "internalType": "bytes32",
                    "name": "_merkleRoot",
                    "type": "bytes32"
                }
            ],
            "name": "initialize",
            "outputs": [],
            "stateMutability": "nonpayable",
            "type": "function"
        },
        {
            "inputs": [
                {
                    "internalType": "uint256",
                    "name": "index",
                    "type": "uint256"
                }
            ],
            "name": "isClaimed",
            "outputs": [
                {
                    "internalType": "bool",
                    "name": "",
                    "type": "bool"
                }
            ],
            "stateMutability": "view",
            "type": "function"
        },
        {
            "inputs": [],
            "name": "merkleRoot",
            "outputs": [
                {
                    "internalType": "bytes32",
                    "name": "",
                    "type": "bytes32"
                }
            ],
            "stateMutability": "view",
            "type": "function"
        },
        {
            "inputs": [],
            "name": "owner",
            "outputs": [
                {
                    "internalType": "address",
                    "name": "",
                    "type": "address"
                }
            ],
            "stateMutability": "view",
            "type": "function"
        },
        {
            "inputs": [],
            "name": "renounceOwnership",
            "outputs": [],
            "stateMutability": "nonpayable",
            "type": "function"
        },
        {
            "inputs": [],
            "name": "soul",
            "outputs": [
                {
                    "internalType": "contract IERC20",
                    "name": "",
                    "type": "address"
                }
            ],
            "stateMutability": "view",
            "type": "function"
        },
        {
            "inputs": [],
            "name": "startTime",
            "outputs": [
                {
                    "internalType": "uint256",
                    "name": "",
                    "type": "uint256"
                }
            ],
            "stateMutability": "view",
            "type": "function"
        },
        {
            "inputs": [
                {
                    "internalType": "address",
                    "name": "newOwner",
                    "type": "address"
                }
            ],
            "name": "transferOwnership",
            "outputs": [],
            "stateMutability": "nonpayable",
            "type": "function"
        }
    ],
    "bytecode": "60e060405273e2fb177009ff39f52c0134e8007fa0e4baacbd076080524260a081905261002f9062ed4e0061009d565b60c05234801561003e57600080fd5b506100483361004d565b6100c3565b600080546001600160a01b038381166001600160a01b0319831681178455604051919092169283917f8be0079c531659141344cd1fd0a4f28419497f9722a3daafe3b4186f6b6457e09190a35050565b600082198211156100be57634e487b7160e01b600052601160045260246000fd5b500190565b60805160a05160c051610b4b6101146000396000818160e40152818161037f01526105f6015260008181610113015261031701526000818161013a0152818161040b01526106660152610b4b6000f3fe608060405234801561001057600080fd5b50600436106100a95760003560e01c8063815b7a8c11610071578063815b7a8c146101355780638da5cb5b146101745780639498bd71146101855780639e34070f14610198578063ec144dc7146101bb578063f2fde38b146101ce57600080fd5b80632e7ba6ef146100ae5780632eb4a7ab146100c35780633197cbb6146100df578063715018a61461010657806378e979251461010e575b600080fd5b6100c16100bc36600461096f565b6101e1565b005b6100cc60015481565b6040519081526020015b60405180910390f35b6100cc7f000000000000000000000000000000000000000000000000000000000000000081565b6100c1610524565b6100cc7f000000000000000000000000000000000000000000000000000000000000000081565b61015c7f000000000000000000000000000000000000000000000000000000000000000081565b6040516001600160a01b0390911681526020016100d6565b6000546001600160a01b031661015c565b6100c1610193366004610a06565b61055a565b6101ab6101a6366004610a06565b610589565b60405190151581526020016100d6565b6100c16101c9366004610a06565b6105ca565b6100c16101dc366004610a1f565b61077e565b6101ea85610589565b1561023c5760405162461bcd60e51b815260206004820152601760248201527f636c61696d3a20616c726561647920636c61696d65642e00000000000000000060448201526064015b60405180910390fd5b60408051602081018790526bffffffffffffffffffffffff19606087901b1691810191909152605481018490526000906074016040516020818303038152906040528051906020012090506102c8838380806020026020016040519081016040528093929190818152602001838360200280828437600092019190915250506001549150849050610816565b61030c5760405162461bcd60e51b815260206004820152601560248201527431b630b4b69d1034b73b30b634b210383937b7b31760591b6044820152606401610233565b610315866108c5565b7f000000000000000000000000000000000000000000000000000000000000000042101561037d5760405162461bcd60e51b81526020600482015260156024820152742fb9b2ba21b630b4b6b2b21d103a37b79039b7b7b760591b6044820152606401610233565b7f00000000000000000000000000000000000000000000000000000000000000004211156103e55760405162461bcd60e51b81526020600482015260156024820152745f736574436c61696d65643a20746f6f206c61746560581b6044820152606401610233565b60405163a9059cbb60e01b81526001600160a01b038681166004830152602482018690527f0000000000000000000000000000000000000000000000000000000000000000169063a9059cbb90604401602060405180830381600087803b15801561044f57600080fd5b505af1158015610463573d6000803e3d6000fd5b505050506040513d601f19601f820116820180604052508101906104879190610a41565b6104d35760405162461bcd60e51b815260206004820152601c60248201527f5f736574436c61696d65643a207472616e73666572206661696c6564000000006044820152606401610233565b604080518781526001600160a01b03871660208201529081018590527f4ec90e965519d92681267467f775ada5bd214aa92c0dc93d90a5e880ce9ed0269060600160405180910390a1505050505050565b6000546001600160a01b0316331461054e5760405162461bcd60e51b815260040161023390610a63565b6105586000610903565b565b6000546001600160a01b031633146105845760405162461bcd60e51b815260040161023390610a63565b600155565b60008061059861010084610aae565b905060006105a861010085610ac2565b60009283526002602052604090922054600190921b9182169091149392505050565b6000546001600160a01b031633146105f45760405162461bcd60e51b815260040161023390610a63565b7f00000000000000000000000000000000000000000000000000000000000000004210156106645760405162461bcd60e51b815260206004820152601a60248201527f636f6c6c656374556e636c61696d65643a20746f6f20736f6f6e0000000000006044820152606401610233565b7f00000000000000000000000000000000000000000000000000000000000000006001600160a01b031663a9059cbb6106a56000546001600160a01b031690565b6040516001600160e01b031960e084901b1681526001600160a01b03909116600482015260248101849052604401602060405180830381600087803b1580156106ed57600080fd5b505af1158015610701573d6000803e3d6000fd5b505050506040513d601f19601f820116820180604052508101906107259190610a41565b61077b5760405162461bcd60e51b815260206004820152602160248201527f636f6c6c656374556e636c61696d65643a207472616e73666572206661696c656044820152601960fa1b6064820152608401610233565b50565b6000546001600160a01b031633146107a85760405162461bcd60e51b815260040161023390610a63565b6001600160a01b03811661080d5760405162461bcd60e51b815260206004820152602660248201527f4f776e61626c653a206e6577206f776e657220697320746865207a65726f206160448201526564647265737360d01b6064820152608401610233565b61077b81610903565b600081815b85518110156108ba57600086828151811061083857610838610ad6565b6020026020010151905080831161087a5760408051602081018590529081018290526060016040516020818303038152906040528051906020012092506108a7565b60408051602081018390529081018490526060016040516020818303038152906040528051906020012092505b50806108b281610aec565b91505061081b565b509092149392505050565b60006108d361010083610aae565b905060006108e361010084610ac2565b6000928352600260205260409092208054600190931b9092179091555050565b600080546001600160a01b038381166001600160a01b0319831681178455604051919092169283917f8be0079c531659141344cd1fd0a4f28419497f9722a3daafe3b4186f6b6457e09190a35050565b80356001600160a01b038116811461096a57600080fd5b919050565b60008060008060006080868803121561098757600080fd5b8535945061099760208701610953565b935060408601359250606086013567ffffffffffffffff808211156109bb57600080fd5b818801915088601f8301126109cf57600080fd5b8135818111156109de57600080fd5b8960208260051b85010111156109f357600080fd5b9699959850939650602001949392505050565b600060208284031215610a1857600080fd5b5035919050565b600060208284031215610a3157600080fd5b610a3a82610953565b9392505050565b600060208284031215610a5357600080fd5b81518015158114610a3a57600080fd5b6020808252818101527f4f776e61626c653a2063616c6c6572206973206e6f7420746865206f776e6572604082015260600190565b634e487b7160e01b600052601260045260246000fd5b600082610abd57610abd610a98565b500490565b600082610ad157610ad1610a98565b500690565b634e487b7160e01b600052603260045260246000fd5b6000600019821415610b0e57634e487b7160e01b600052601160045260246000fd5b506001019056fea2646970667358221220cb1f38f709e8199faf5fdef8db9b388ff0780dcba809b5e8cb505b47eacf0d0864736f6c63430008090033",
    "sourcePath": "/Users/buns/Documents/GitHub/SoulSwapFinance/soul-claims/contracts/SoulDistributor.sol",
    "compiler": {
        "name": "solc",
        "version": "0.8.9+commit.e5eed63a"
    },
    "functionHashes": {
        "claim(uint256,address,uint256,bytes32[])": "2e7ba6ef",
        "collectUnclaimed(uint256)": "ec144dc7",
        "endTime()": "3197cbb6",
        "initialize(bytes32)": "9498bd71",
        "isClaimed(uint256)": "9e34070f",
        "merkleRoot()": "2eb4a7ab",
        "owner()": "8da5cb5b",
        "renounceOwnership()": "715018a6",
        "soul()": "815b7a8c",
        "startTime()": "78e97925",
        "transferOwnership(address)": "f2fde38b"
    },
    "gasEstimates": {
        "creation": {
            "codeDepositCost": "578200",
            "executionCost": "infinite",
            "totalCost": "infinite"
        },
        "external": {
            "claim(uint256,address,uint256,bytes32[])": "infinite",
            "collectUnclaimed(uint256)": "infinite",
            "endTime()": "infinite",
            "initialize(bytes32)": "24508",
            "isClaimed(uint256)": "2698",
            "merkleRoot()": "2307",
            "owner()": "2353",
            "renounceOwnership()": "28181",
            "soul()": "infinite",
            "startTime()": "infinite",
            "transferOwnership(address)": "28419"
        },
        "internal": {
            "_setClaimed(uint256)": "24452"
        }
    }
}