{
    "contractName": "SoulDistributor",
    "abi": [
        {
            "inputs": [],
            "stateMutability": "nonpayable",
            "type": "constructor"
        },
        {
            "anonymous": false,
            "inputs": [
                {
                    "indexed": false,
                    "internalType": "uint256",
                    "name": "index",
                    "type": "uint256"
                },
                {
                    "indexed": false,
                    "internalType": "address",
                    "name": "account",
                    "type": "address"
                },
                {
                    "indexed": false,
                    "internalType": "uint256",
                    "name": "amount",
                    "type": "uint256"
                }
            ],
            "name": "Claimed",
            "type": "event"
        },
        {
            "anonymous": false,
            "inputs": [
                {
                    "indexed": true,
                    "internalType": "address",
                    "name": "previousOwner",
                    "type": "address"
                },
                {
                    "indexed": true,
                    "internalType": "address",
                    "name": "newOwner",
                    "type": "address"
                }
            ],
            "name": "OwnershipTransferred",
            "type": "event"
        },
        {
            "inputs": [
                {
                    "internalType": "uint256",
                    "name": "index",
                    "type": "uint256"
                },
                {
                    "internalType": "address",
                    "name": "account",
                    "type": "address"
                },
                {
                    "internalType": "uint256",
                    "name": "amount",
                    "type": "uint256"
                },
                {
                    "internalType": "bytes32[]",
                    "name": "merkleProof",
                    "type": "bytes32[]"
                }
            ],
            "name": "claim",
            "outputs": [],
            "stateMutability": "nonpayable",
            "type": "function"
        },
        {
            "inputs": [
                {
                    "internalType": "uint256",
                    "name": "amount",
                    "type": "uint256"
                }
            ],
            "name": "collectUnclaimed",
            "outputs": [],
            "stateMutability": "nonpayable",
            "type": "function"
        },
        {
            "inputs": [],
            "name": "duration",
            "outputs": [
                {
                    "internalType": "uint256",
                    "name": "",
                    "type": "uint256"
                }
            ],
            "stateMutability": "view",
            "type": "function"
        },
        {
            "inputs": [],
            "name": "endTime",
            "outputs": [
                {
                    "internalType": "uint256",
                    "name": "",
                    "type": "uint256"
                }
            ],
            "stateMutability": "view",
            "type": "function"
        },
        {
            "inputs": [
                {
                    "internalType": "bytes32",
                    "name": "_merkleRoot",
                    "type": "bytes32"
                },
                {
                    "internalType": "uint256",
                    "name": "_startTime",
                    "type": "uint256"
                },
                {
                    "internalType": "uint256",
                    "name": "_days",
                    "type": "uint256"
                }
            ],
            "name": "initialize",
            "outputs": [],
            "stateMutability": "nonpayable",
            "type": "function"
        },
        {
            "inputs": [
                {
                    "internalType": "uint256",
                    "name": "index",
                    "type": "uint256"
                }
            ],
            "name": "isClaimed",
            "outputs": [
                {
                    "internalType": "bool",
                    "name": "",
                    "type": "bool"
                }
            ],
            "stateMutability": "view",
            "type": "function"
        },
        {
            "inputs": [],
            "name": "merkleRoot",
            "outputs": [
                {
                    "internalType": "bytes32",
                    "name": "",
                    "type": "bytes32"
                }
            ],
            "stateMutability": "view",
            "type": "function"
        },
        {
            "inputs": [],
            "name": "owner",
            "outputs": [
                {
                    "internalType": "address",
                    "name": "",
                    "type": "address"
                }
            ],
            "stateMutability": "view",
            "type": "function"
        },
        {
            "inputs": [],
            "name": "renounceOwnership",
            "outputs": [],
            "stateMutability": "nonpayable",
            "type": "function"
        },
        {
            "inputs": [],
            "name": "soul",
            "outputs": [
                {
                    "internalType": "contract IERC20",
                    "name": "",
                    "type": "address"
                }
            ],
            "stateMutability": "view",
            "type": "function"
        },
        {
            "inputs": [],
            "name": "startTime",
            "outputs": [
                {
                    "internalType": "uint256",
                    "name": "",
                    "type": "uint256"
                }
            ],
            "stateMutability": "view",
            "type": "function"
        },
        {
            "inputs": [
                {
                    "internalType": "address",
                    "name": "newOwner",
                    "type": "address"
                }
            ],
            "name": "transferOwnership",
            "outputs": [],
            "stateMutability": "nonpayable",
            "type": "function"
        }
    ],
    "bytecode": "60a060405273e2fb177009ff39f52c0134e8007fa0e4baacbd076080527f30cee81b773540443687ae0ada8747397a3548e589117d8ea60924a3198afcea60015534801561004c57600080fd5b506100563361007a565b6361da3390600381905562433c806004819055610072916100ca565b6005556100f0565b600080546001600160a01b038381166001600160a01b0319831681178455604051919092169283917f8be0079c531659141344cd1fd0a4f28419497f9722a3daafe3b4186f6b6457e09190a35050565b600082198211156100eb57634e487b7160e01b600052601160045260246000fd5b500190565b608051610b0d61011960003960008181610112015281816103a701526105630152610b0d6000f3fe608060405234801561001057600080fd5b50600436106100b45760003560e01c8063815b7a8c11610071578063815b7a8c1461010d5780638da5cb5b1461014c5780639e34070f1461015d578063ec144dc714610180578063f0fd7f6414610193578063f2fde38b146101a657600080fd5b80630fb5a6b4146100b95780632e7ba6ef146100d55780632eb4a7ab146100ea5780633197cbb6146100f3578063715018a6146100fc57806378e9792514610104575b600080fd5b6100c260045481565b6040519081526020015b60405180910390f35b6100e86100e33660046108c6565b6101b9565b005b6100c260015481565b6100c260055481565b6100e86104c0565b6100c260035481565b6101347f000000000000000000000000000000000000000000000000000000000000000081565b6040516001600160a01b0390911681526020016100cc565b6000546001600160a01b0316610134565b61017061016b36600461095d565b6104f6565b60405190151581526020016100cc565b6100e861018e36600461095d565b610537565b6100e86101a1366004610976565b61067b565b6100e86101b43660046109a2565b6106d5565b6101c2856104f6565b156102145760405162461bcd60e51b815260206004820152601760248201527f636c61696d3a20616c726561647920636c61696d65642e00000000000000000060448201526064015b60405180910390fd5b60408051602081018790526bffffffffffffffffffffffff19606087901b1691810191909152605481018490526000906074016040516020818303038152906040528051906020012090506102a083838080602002602001604051908101604052809392919081815260200183836020028082843760009201919091525050600154915084905061076d565b6102e45760405162461bcd60e51b815260206004820152601560248201527431b630b4b69d1034b73b30b634b210383937b7b31760591b604482015260640161020b565b6102ed8661081c565b6003544210156103375760405162461bcd60e51b81526020600482015260156024820152742fb9b2ba21b630b4b6b2b21d103a37b79039b7b7b760591b604482015260640161020b565b6005544211156103815760405162461bcd60e51b81526020600482015260156024820152745f736574436c61696d65643a20746f6f206c61746560581b604482015260640161020b565b60405163a9059cbb60e01b81526001600160a01b038681166004830152602482018690527f0000000000000000000000000000000000000000000000000000000000000000169063a9059cbb90604401602060405180830381600087803b1580156103eb57600080fd5b505af11580156103ff573d6000803e3d6000fd5b505050506040513d601f19601f8201168201806040525081019061042391906109c4565b61046f5760405162461bcd60e51b815260206004820152601c60248201527f5f736574436c61696d65643a207472616e73666572206661696c656400000000604482015260640161020b565b604080518781526001600160a01b03871660208201529081018590527f4ec90e965519d92681267467f775ada5bd214aa92c0dc93d90a5e880ce9ed0269060600160405180910390a1505050505050565b6000546001600160a01b031633146104ea5760405162461bcd60e51b815260040161020b906109e6565b6104f4600061085a565b565b60008061050561010084610a47565b9050600061051561010085610a5b565b60009283526002602052604090922054600190921b9182169091149392505050565b6000546001600160a01b031633146105615760405162461bcd60e51b815260040161020b906109e6565b7f00000000000000000000000000000000000000000000000000000000000000006001600160a01b031663a9059cbb6105a26000546001600160a01b031690565b6040516001600160e01b031960e084901b1681526001600160a01b03909116600482015260248101849052604401602060405180830381600087803b1580156105ea57600080fd5b505af11580156105fe573d6000803e3d6000fd5b505050506040513d601f19601f8201168201806040525081019061062291906109c4565b6106785760405162461bcd60e51b815260206004820152602160248201527f636f6c6c656374556e636c61696d65643a207472616e73666572206661696c656044820152601960fa1b606482015260840161020b565b50565b6000546001600160a01b031633146106a55760405162461bcd60e51b815260040161020b906109e6565b6001839055600382905560006106be8262015180610a6f565b90506106ca8184610a8e565b600555600455505050565b6000546001600160a01b031633146106ff5760405162461bcd60e51b815260040161020b906109e6565b6001600160a01b0381166107645760405162461bcd60e51b815260206004820152602660248201527f4f776e61626c653a206e6577206f776e657220697320746865207a65726f206160448201526564647265737360d01b606482015260840161020b565b6106788161085a565b600081815b855181101561081157600086828151811061078f5761078f610aa6565b602002602001015190508083116107d15760408051602081018590529081018290526060016040516020818303038152906040528051906020012092506107fe565b60408051602081018390529081018490526060016040516020818303038152906040528051906020012092505b508061080981610abc565b915050610772565b509092149392505050565b600061082a61010083610a47565b9050600061083a61010084610a5b565b6000928352600260205260409092208054600190931b9092179091555050565b600080546001600160a01b038381166001600160a01b0319831681178455604051919092169283917f8be0079c531659141344cd1fd0a4f28419497f9722a3daafe3b4186f6b6457e09190a35050565b80356001600160a01b03811681146108c157600080fd5b919050565b6000806000806000608086880312156108de57600080fd5b853594506108ee602087016108aa565b935060408601359250606086013567ffffffffffffffff8082111561091257600080fd5b818801915088601f83011261092657600080fd5b81358181111561093557600080fd5b8960208260051b850101111561094a57600080fd5b9699959850939650602001949392505050565b60006020828403121561096f57600080fd5b5035919050565b60008060006060848603121561098b57600080fd5b505081359360208301359350604090920135919050565b6000602082840312156109b457600080fd5b6109bd826108aa565b9392505050565b6000602082840312156109d657600080fd5b815180151581146109bd57600080fd5b6020808252818101527f4f776e61626c653a2063616c6c6572206973206e6f7420746865206f776e6572604082015260600190565b634e487b7160e01b600052601260045260246000fd5b634e487b7160e01b600052601160045260246000fd5b600082610a5657610a56610a1b565b500490565b600082610a6a57610a6a610a1b565b500690565b6000816000190483118215151615610a8957610a89610a31565b500290565b60008219821115610aa157610aa1610a31565b500190565b634e487b7160e01b600052603260045260246000fd5b6000600019821415610ad057610ad0610a31565b506001019056fea2646970667358221220e6a62e21f16e79371b9d168fed6153c649c4a614a35d54210d4e606d634ef8a364736f6c63430008090033",
    "sourcePath": "/Users/buns/Documents/GitHub/SoulSwapFinance/soul-claims/contracts/flat/SoulDistributor_flat.sol",
    "compiler": {
        "name": "solc",
        "version": "0.8.9+commit.e5eed63a"
    },
    "functionHashes": {
        "claim(uint256,address,uint256,bytes32[])": "2e7ba6ef",
        "collectUnclaimed(uint256)": "ec144dc7",
        "duration()": "0fb5a6b4",
        "endTime()": "3197cbb6",
        "initialize(bytes32,uint256,uint256)": "f0fd7f64",
        "isClaimed(uint256)": "9e34070f",
        "merkleRoot()": "2eb4a7ab",
        "owner()": "8da5cb5b",
        "renounceOwnership()": "715018a6",
        "soul()": "815b7a8c",
        "startTime()": "78e97925",
        "transferOwnership(address)": "f2fde38b"
    },
    "gasEstimates": {
        "creation": {
            "codeDepositCost": "565800",
            "executionCost": "infinite",
            "totalCost": "infinite"
        },
        "external": {
            "claim(uint256,address,uint256,bytes32[])": "infinite",
            "collectUnclaimed(uint256)": "infinite",
            "duration()": "2285",
            "endTime()": "2351",
            "initialize(bytes32,uint256,uint256)": "91095",
            "isClaimed(uint256)": "2676",
            "merkleRoot()": "2329",
            "owner()": "2353",
            "renounceOwnership()": "28203",
            "soul()": "infinite",
            "startTime()": "2395",
            "transferOwnership(address)": "28419"
        },
        "internal": {
            "_setClaimed(uint256)": "24452"
        }
    }
}